{"abi":[{"type":"function","name":"consents","inputs":[{"name":"","type":"address","internalType":"address"},{"name":"","type":"address","internalType":"address"},{"name":"","type":"bytes32","internalType":"bytes32"}],"outputs":[{"name":"allowed","type":"bool","internalType":"bool"},{"name":"expiry","type":"uint64","internalType":"uint64"},{"name":"scope","type":"bytes32","internalType":"bytes32"}],"stateMutability":"view"},{"type":"function","name":"grant","inputs":[{"name":"viewer","type":"address","internalType":"address"},{"name":"scope","type":"bytes32","internalType":"bytes32"},{"name":"expiry","type":"uint64","internalType":"uint64"}],"outputs":[],"stateMutability":"nonpayable"},{"type":"function","name":"isAllowed","inputs":[{"name":"patient","type":"address","internalType":"address"},{"name":"viewer","type":"address","internalType":"address"},{"name":"scope","type":"bytes32","internalType":"bytes32"}],"outputs":[{"name":"","type":"bool","internalType":"bool"}],"stateMutability":"view"},{"type":"function","name":"revoke","inputs":[{"name":"viewer","type":"address","internalType":"address"},{"name":"scope","type":"bytes32","internalType":"bytes32"}],"outputs":[],"stateMutability":"nonpayable"},{"type":"event","name":"ConsentGranted","inputs":[{"name":"patient","type":"address","indexed":true,"internalType":"address"},{"name":"viewer","type":"address","indexed":true,"internalType":"address"},{"name":"scope","type":"bytes32","indexed":false,"internalType":"bytes32"},{"name":"expiry","type":"uint64","indexed":false,"internalType":"uint64"}],"anonymous":false},{"type":"event","name":"ConsentRevoked","inputs":[{"name":"patient","type":"address","indexed":true,"internalType":"address"},{"name":"viewer","type":"address","indexed":true,"internalType":"address"},{"name":"scope","type":"bytes32","indexed":false,"internalType":"bytes32"}],"anonymous":false}],"bytecode":{"object":"0x608060405234801561000f575f80fd5b506108558061001d5f395ff3fe608060405234801561000f575f80fd5b506004361061004a575f3560e01c806388e627211461004e57806397353d8c1461006a578063cdf520e21461009c578063f9bc3615146100cc575b5f80fd5b610068600480360381019061006391906105c6565b6100e8565b005b610084600480360381019061007f9190610604565b61020d565b6040516100939392919061069f565b60405180910390f35b6100b660048036038101906100b19190610604565b610267565b6040516100c391906106d4565b60405180910390f35b6100e660048036038101906100e19190610717565b610377565b005b5f803373ffffffffffffffffffffffffffffffffffffffff1673ffffffffffffffffffffffffffffffffffffffff1681526020019081526020015f205f8373ffffffffffffffffffffffffffffffffffffffff1673ffffffffffffffffffffffffffffffffffffffff1681526020019081526020015f205f8281526020019081526020015f205f8082015f6101000a81549060ff02191690555f820160016101000a81549067ffffffffffffffff0219169055600182015f905550508173ffffffffffffffffffffffffffffffffffffffff163373ffffffffffffffffffffffffffffffffffffffff167fb60b6e1e6b5c506442e2d90773d8a36f77cf5ecd9f687f5c826e6602bdea177d836040516102019190610767565b60405180910390a35050565b5f602052825f5260405f20602052815f5260405f20602052805f5260405f205f925092505050805f015f9054906101000a900460ff1690805f0160019054906101000a900467ffffffffffffffff16908060010154905083565b5f805f808673ffffffffffffffffffffffffffffffffffffffff1673ffffffffffffffffffffffffffffffffffffffff1681526020019081526020015f205f8573ffffffffffffffffffffffffffffffffffffffff1673ffffffffffffffffffffffffffffffffffffffff1681526020019081526020015f205f8481526020019081526020015f206040518060600160405290815f82015f9054906101000a900460ff161515151581526020015f820160019054906101000a900467ffffffffffffffff1667ffffffffffffffff1667ffffffffffffffff1681526020016001820154815250509050805f0151801561036d5750806020015167ffffffffffffffff1642105b9150509392505050565b428167ffffffffffffffff16116103c3576040517f08c379a00000000000000000000000000000000000000000000000000000000081526004016103ba906107da565b60405180910390fd5b60405180606001604052806001151581526020018267ffffffffffffffff168152602001838152505f803373ffffffffffffffffffffffffffffffffffffffff1673ffffffffffffffffffffffffffffffffffffffff1681526020019081526020015f205f8573ffffffffffffffffffffffffffffffffffffffff1673ffffffffffffffffffffffffffffffffffffffff1681526020019081526020015f205f8481526020019081526020015f205f820151815f015f6101000a81548160ff0219169083151502179055506020820151815f0160016101000a81548167ffffffffffffffff021916908367ffffffffffffffff160217905550604082015181600101559050508273ffffffffffffffffffffffffffffffffffffffff163373ffffffffffffffffffffffffffffffffffffffff167f9cd615cebb770dcf37b8d6198e7a51360669547c4f71376ba8b1766a46bf27c484846040516105289291906107f8565b60405180910390a3505050565b5f80fd5b5f73ffffffffffffffffffffffffffffffffffffffff82169050919050565b5f61056282610539565b9050919050565b61057281610558565b811461057c575f80fd5b50565b5f8135905061058d81610569565b92915050565b5f819050919050565b6105a581610593565b81146105af575f80fd5b50565b5f813590506105c08161059c565b92915050565b5f80604083850312156105dc576105db610535565b5b5f6105e98582860161057f565b92505060206105fa858286016105b2565b9150509250929050565b5f805f6060848603121561061b5761061a610535565b5b5f6106288682870161057f565b93505060206106398682870161057f565b925050604061064a868287016105b2565b9150509250925092565b5f8115159050919050565b61066881610654565b82525050565b5f67ffffffffffffffff82169050919050565b61068a8161066e565b82525050565b61069981610593565b82525050565b5f6060820190506106b25f83018661065f565b6106bf6020830185610681565b6106cc6040830184610690565b949350505050565b5f6020820190506106e75f83018461065f565b92915050565b6106f68161066e565b8114610700575f80fd5b50565b5f81359050610711816106ed565b92915050565b5f805f6060848603121561072e5761072d610535565b5b5f61073b8682870161057f565b935050602061074c868287016105b2565b925050604061075d86828701610703565b9150509250925092565b5f60208201905061077a5f830184610690565b92915050565b5f82825260208201905092915050565b7f62616420657870697279000000000000000000000000000000000000000000005f82015250565b5f6107c4600a83610780565b91506107cf82610790565b602082019050919050565b5f6020820190508181035f8301526107f1816107b8565b9050919050565b5f60408201905061080b5f830185610690565b6108186020830184610681565b939250505056fea26469706673582212209adbf1ff28ee87815a0e6cb1c468b3163bf7657c9c6b8be05ec6fcc0a94783d164736f6c63430008140033","linkReferences":{}},"methodIdentifiers":{"consents(address,address,bytes32)":"97353d8c","grant(address,bytes32,uint64)":"f9bc3615","isAllowed(address,address,bytes32)":"cdf520e2","revoke(address,bytes32)":"88e62721"},"id":16}