{"abi":[{"type":"function","name":"records","inputs":[{"name":"","type":"bytes32","internalType":"bytes32"}],"outputs":[{"name":"owner","type":"address","internalType":"address"},{"name":"hash","type":"bytes32","internalType":"bytes32"},{"name":"cid","type":"string","internalType":"string"}],"stateMutability":"view"},{"type":"function","name":"register","inputs":[{"name":"recordId","type":"bytes32","internalType":"bytes32"},{"name":"hash","type":"bytes32","internalType":"bytes32"},{"name":"cid","type":"string","internalType":"string"}],"outputs":[],"stateMutability":"nonpayable"},{"type":"event","name":"RecordRegistered","inputs":[{"name":"recordId","type":"bytes32","indexed":true,"internalType":"bytes32"},{"name":"owner","type":"address","indexed":true,"internalType":"address"},{"name":"hash","type":"bytes32","indexed":false,"internalType":"bytes32"},{"name":"cid","type":"string","indexed":false,"internalType":"string"}],"anonymous":false}],"bytecode":{"object":"0x608060405234801561000f575f80fd5b506109868061001d5f395ff3fe608060405234801561000f575f80fd5b5060043610610034575f3560e01c806301e64725146100385780630e5ceb471461006a575b5f80fd5b610052600480360381019061004d919061036e565b610086565b60405161006193929190610471565b60405180910390f35b610084600480360381019061007f919061050e565b610150565b005b5f602052805f5260405f205f91509050805f015f9054906101000a900473ffffffffffffffffffffffffffffffffffffffff16908060010154908060020180546100cf906105ac565b80601f01602080910402602001604051908101604052809291908181526020018280546100fb906105ac565b80156101465780601f1061011d57610100808354040283529160200191610146565b820191905f5260205f20905b81548152906001019060200180831161012957829003601f168201915b5050505050905083565b5f73ffffffffffffffffffffffffffffffffffffffff165f808681526020019081526020015f205f015f9054906101000a900473ffffffffffffffffffffffffffffffffffffffff1673ffffffffffffffffffffffffffffffffffffffff16146101ef576040517f08c379a00000000000000000000000000000000000000000000000000000000081526004016101e690610626565b60405180910390fd5b60405180606001604052803373ffffffffffffffffffffffffffffffffffffffff16815260200184815260200183838080601f0160208091040260200160405190810160405280939291908181526020018383808284375f81840152601f19601f820116905080830192505050505050508152505f808681526020019081526020015f205f820151815f015f6101000a81548173ffffffffffffffffffffffffffffffffffffffff021916908373ffffffffffffffffffffffffffffffffffffffff1602179055506020820151816001015560408201518160020190816102d69190610817565b509050503373ffffffffffffffffffffffffffffffffffffffff16847ff8f94df0886c437d2e92c123c8de29357c47e65be32a65b1d0e19e490fa7fe3e85858560405161032593929190610920565b60405180910390a350505050565b5f80fd5b5f80fd5b5f819050919050565b61034d8161033b565b8114610357575f80fd5b50565b5f8135905061036881610344565b92915050565b5f6020828403121561038357610382610333565b5b5f6103908482850161035a565b91505092915050565b5f73ffffffffffffffffffffffffffffffffffffffff82169050919050565b5f6103c282610399565b9050919050565b6103d2816103b8565b82525050565b6103e18161033b565b82525050565b5f81519050919050565b5f82825260208201905092915050565b5f5b8381101561041e578082015181840152602081019050610403565b5f8484015250505050565b5f601f19601f8301169050919050565b5f610443826103e7565b61044d81856103f1565b935061045d818560208601610401565b61046681610429565b840191505092915050565b5f6060820190506104845f8301866103c9565b61049160208301856103d8565b81810360408301526104a38184610439565b9050949350505050565b5f80fd5b5f80fd5b5f80fd5b5f8083601f8401126104ce576104cd6104ad565b5b8235905067ffffffffffffffff8111156104eb576104ea6104b1565b5b602083019150836001820283011115610507576105066104b5565b5b9250929050565b5f805f806060858703121561052657610525610333565b5b5f6105338782880161035a565b94505060206105448782880161035a565b935050604085013567ffffffffffffffff81111561056557610564610337565b5b610571878288016104b9565b925092505092959194509250565b7f4e487b71000000000000000000000000000000000000000000000000000000005f52602260045260245ffd5b5f60028204905060018216806105c357607f821691505b6020821081036105d6576105d561057f565b5b50919050565b7f65786973747300000000000000000000000000000000000000000000000000005f82015250565b5f6106106006836103f1565b915061061b826105dc565b602082019050919050565b5f6020820190508181035f83015261063d81610604565b9050919050565b7f4e487b71000000000000000000000000000000000000000000000000000000005f52604160045260245ffd5b5f819050815f5260205f209050919050565b5f6020601f8301049050919050565b5f82821b905092915050565b5f600883026106cd7fffffffffffffffffffffffffffffffffffffffffffffffffffffffffffffffff82610692565b6106d78683610692565b95508019841693508086168417925050509392505050565b5f819050919050565b5f819050919050565b5f61071b610716610711846106ef565b6106f8565b6106ef565b9050919050565b5f819050919050565b61073483610701565b61074861074082610722565b84845461069e565b825550505050565b5f90565b61075c610750565b61076781848461072b565b505050565b5b8181101561078a5761077f5f82610754565b60018101905061076d565b5050565b601f8211156107cf576107a081610671565b6107a984610683565b810160208510156107b8578190505b6107cc6107c485610683565b83018261076c565b50505b505050565b5f82821c905092915050565b5f6107ef5f19846008026107d4565b1980831691505092915050565b5f61080783836107e0565b9150826002028217905092915050565b610820826103e7565b67ffffffffffffffff81111561083957610838610644565b5b61084382546105ac565b61084e82828561078e565b5f60209050601f83116001811461087f575f841561086d578287015190505b61087785826107fc565b8655506108de565b601f19841661088d86610671565b5f5b828110156108b45784890151825560018201915060208501945060208101905061088f565b868310156108d157848901516108cd601f8916826107e0565b8355505b6001600288020188555050505b505050505050565b828183375f83830152505050565b5f6108ff83856103f1565b935061090c8385846108e6565b61091583610429565b840190509392505050565b5f6040820190506109335f8301866103d8565b81810360208301526109468184866108f4565b905094935050505056fea26469706673582212206d8229cdb11f40b3b07f6ab800d6d21a39c7253cb346946b6040e3ef3822040664736f6c63430008140033","linkReferences":{}},"methodIdentifiers":{"records(bytes32)":"01e64725","register(bytes32,bytes32,string)":"0e5ceb47"},"id":18}